:100000000C9447010C946F010C946F010C946F01D8
:100010000C946F010C946F010C946F010C946F01A0
:100020000C946F010C946F010C946F010C946F0190
:100030000C946F010C946F010C946F010C946F0180
:100040000C94B4020C946F010C9424030C94FE02E3
:100050000C946F010C946F010C946F010C946F0160
:100060000C946F010C946F013D2050415F4D41583D
:10007000003D2050415F48494748003D2050415FC6
:100080004C4F57003D2050415F4D494E003D2031BF
:10009000362062697473003D2038206269747300F1
:1000A0003D2044697361626C6564006E524632346F
:1000B0004C30312B006E524632344C3031003D20F2
:1000C000323530204B425053003D2032204D4250BB
:1000D00053003D2031204D4250530053544154555C
:1000E0005309093D203078253032782052585F443A
:1000F000523D25782054585F44533D2578204D418A
:10010000585F52543D25782052585F505F4E4F3D06
:1001100025782054585F46554C4C3D25780D0A00F3
:1001200041524309093D2025640D0A0050412050E9
:100130006F7765720925530D0A0084007B007100FA
:100140006800435243204C656E6774680925530D5F
:100150000A00A00097008D004D6F64656C09093D91
:100160002025530D0A00B500AB0044617461205294
:100170006174650925530D0A00D200C900BE004410
:10018000594E50442F4645415455524500434F4E19
:10019000464947090052465F534554555000524660
:1001A0005F43480900454E5F525841444452004560
:1001B0004E5F4141090052585F50575F50302D3615
:1001C0000054585F41444452090052585F4144442E
:1001D000525F50322D350052585F414444525F50B7
:1001E000302D31005350492053706565647A093DC4
:1001F000202564204D687A0A000A0D524632342FB9
:100200006578616D706C65732F7363616E6E657276
:100210002F002D0000000008000201000003040769
:100220000000000000000000000000002500280081
:100230002B0000000000240027002A00040404040E
:100240000404040402020202020203030303030380
:10025000010204081020408001020408102001025D
:10026000040810200D0A0025303278002030780074
:100270002553093D000D0A002030782530327800E2
:100280002553093D0000010203040500D60911248D
:100290001FBECFEFD8E0DEBFCDBF11E0A0E0B1E0E0
:1002A000ECEAFDE102C005900D92A634B107D9F742
:1002B00022E0A6E4B1E001C01D92A739B207E1F740
:1002C00011E0C7E4D1E004C02197FE010E94C90EED
:1002D000C634D107C9F70E945F060C94D40E0C9463
:1002E0000000CF92DF92EF92FF920F931F93CF9374
:1002F000DF936C017A018B01C0E0D0E0CE15DF0501
:1003000081F0D8016D918D01D601ED91FC910190A4
:10031000F081E02DC6010995892B11F02196EECFD1
:100320007E01C701DF91CF911F910F91FF90EF9058
:10033000DF90CF900895089580E090E00895FC014B
:10034000538D448D252F30E0842F90E0821B930B3A
:10035000541710F0CF96089501970895FC01918DE0
:10036000828D981761F0828DDF01A80FB11D5D9617
:100370008C91928D9F5F9F73928F90E008958FEF85
:100380009FEF0895FC01918D828D981731F0828D39
:10039000E80FF11D858D90E008958FEF9FEF089590
:1003A000FC01918D228D892F90E0805C9F4F821BF4
:1003B00091098F73992708958FEC91E00E94D001E5
:1003C00021E0892B09F420E0822F0895FC01848D1F
:1003D000DF01A80FB11DA35ABF4F2C91848D90E06F
:1003E00001968F739927848FA689B7892C93A0894A
:1003F000B1898C91837080648C93938D848D9813D4
:1004000006C00288F389E02D80818F7D8083089566
:10041000EF92FF920F931F93CF93DF93EC0181E054
:10042000888F9B8D8C8D981305C0E889F989808110
:1004300085FD26C0F62E0B8D10E00F5F1F4F0F734A
:100440001127E02E8C8DE8120CC00FB607FCFACFF6
:10045000E889F989808185FFF5CFCE010E94E60108
:10046000F1CF8B8DFE01E80FF11DE35AFF4FF082B3
:100470009FB7F8940B8FEA89FB89808180620AC05C
:100480009FB7F894EE89FF896083E889F9898081B4
:100490008370806480839FBF81E090E0DF91CF9183
:1004A0001F910F91FF90EF900895CF93DF93EC0190
:1004B000888D8823C9F0EA89FB89808185FD05C084
:1004C000A889B9898C9186FD0FC00FB607FCF5CFBE
:1004D000808185FFF2CFA889B9898C9185FFEDCF06
:1004E000CE010E94E601E7CFDF91CF91089580E031
:1004F00090E0892B29F00E94DC0181110C9400000E
:100500000895CF93C82F682F8FEC91E00E940802C6
:100510008C2FCC0F990BCF9108950E94CF0E3FB72F
:10052000F8948091CB019091CC01A091CD01B09134
:10053000CE0126B5A89B05C02F3F19F00196A11D3D
:10054000B11D3FBFBA2FA92F982F8827820F911D69
:10055000A11DB11DBC01CD0142E0660F771F881FB0
:10056000991F4A95D1F708951F920F920FB60F92D7
:1005700011242F933F938F939F93AF93BF938091B9
:10058000C7019091C801A091C901B091CA013091F1
:10059000C60123E0230F2D3720F40196A11DB11DC4
:1005A00005C026E8230F0296A11DB11D2093C601A8
:1005B0008093C7019093C801A093C901B093CA0169
:1005C0008091CB019091CC01A091CD01B091CE0151
:1005D0000196A11DB11D8093CB019093CC01A093F6
:1005E000CD01B093CE01BF91AF919F918F913F917B
:1005F0002F910F900FBE0F901F9018951F920F9282
:100600000FB60F9211242F933F934F935F936F93E5
:100610007F938F939F93AF93BF93EF93FF938FEC51
:1006200091E00E94E601FF91EF91BF91AF919F9100
:100630008F917F916F915F914F913F912F910F908B
:100640000FBE0F901F9018951F920F920FB60F922A
:1006500011242F938F939F93EF93FF93E091DF01EA
:10066000F091E0018081E091E501F091E60182FDE9
:1006700012C090818091E8018F5F8F732091E90112
:10068000821751F0E091E801F0E0E153FE4F958FC1
:100690008093E80101C08081FF91EF919F918F913C
:1006A0002F910F900FBE0F901F9018958EBD0000D8
:1006B0000DB407FEFDCF8EB50895009769F0FC01DB
:1006C00001900020E9F73197AF01481B590BBC019D
:1006D0008FEC91E00C94710180E090E008958F928E
:1006E0009F92AF92BF920F931F93CF93DF93CDB79B
:1006F000DEB7A1970FB6F894DEBF0FBECDBF19A22B
:10070000423008F44AE08E010F5D1F4F842E912C79
:10071000A12CB12CA50194010E94A70EE62FB901CE
:10072000CA0101501109EA3014F4E05D01C0E95C2E
:10073000D801EC93232B242B252B61F7C8010E94B1
:100740005D03A1960FB6F894DEBF0FBECDBFDF915B
:10075000CF911F910F91BF90AF909F908F90089570
:100760000F931F93CF93DF938C01C0E0D0E0F8018B
:10077000EC0FFD1F6491662341F08FEC91E00E9425
:100780000802892B11F02196F2CFCE01DF91CF9193
:100790001F910F91089582E491E00C945D0390E025
:1007A000FC01E05BFD4F2491FC01E45CFD4F849172
:1007B000882399F090E0880F991FFC01EE5CFD4FB3
:1007C000A591B491FC01E85DFD4F859194918FB79F
:1007D000F894EC91E22BEC938FBF089590E0FC012C
:1007E000EC5EFD4F2491FC01E05BFD4F3491FC0178
:1007F000E45CFD4FE491EE2309F43CC0222339F17F
:10080000233091F038F42130A9F0223001F584B57D
:100810008F7D12C0273091F02830A1F02430B9F438
:10082000809180008F7D03C0809180008F778093BE
:1008300080000DC084B58F7784BD09C08091B00061
:100840008F7703C08091B0008F7D8093B000F0E07F
:10085000EE0FFF1FE85DFD4FA591B4919FB7F8948F
:10086000611104C08C913095382302C0EC913E2B6D
:100870003C939FBF0895682F809170020E94EE0301
:1008800080918802909189028230910538F0880F1A
:10089000991F880F991F05970197F1F7089581E037
:1008A0000C943B040F931F930091720210917302FA
:1008B000209174023091750240E052E16AE770E0E5
:1008C00090E0041715072607370740F476956795DB
:1008D000579547959F5F9630A1F797E081E089276C
:1008E000982F906A969581709CBD8DBD80E01F9178
:1008F0000F910C943B04CF93C82F0E9452048C2F6D
:1009000080620E94560380937602CF910C944F042C
:10091000CF93DF93D82FC62F0E9452048D2F806271
:100920000E945603809376028C2F0E945603DF911B
:10093000CF910C944F0460917D0261FD0AC062600A
:1009400060937D0280E00E9488048BE19EE4019721
:10095000F1F70895CF93C82F0E9452048C2F0E9464
:100960005603809376028FEF0E945603C82F0E9491
:100970004F048C2FCF910895FF920F931F93CF9325
:10098000DF93C62FD42F9F938F9380E892E09F939D
:100990008F930E94750ADC0F0F900F900F900F90AD
:1009A00008E712E0CD1791F0FF24F394FC0E8C2F92
:1009B0000E94AA041F928F931F930F930E94750A9F
:1009C0000F900F900F900F90CF2DECCF85E792E016
:1009D0009F938F930E94750A0F900F90DF91CF9194
:1009E0001F910F91FF90089560E081E00E948804BC
:1009F00080918002882351F08DE10E94AA04682F23
:100A00006D7F8DE10E948804109280020895FF920C
:100A10000F931F93CF93DF93182FF62ED72FC42F4A
:100A20000E945204812F80620E94560380937602B6
:100A30000F2D1D2FCC2339F0F80181918F010E94D9
:100A40005603C150F7CFDF91CF911F910F91FF90C7
:100A50000C944F048F929F92AF92BF92CF92DF92ED
:100A6000EF92FF920F931F93CF93DF93D62FB42E65
:100A70009F938F9380E792E09F938F930E94750AD4
:100A8000BD0E0F900F900F900F908CE6E82E82E035
:100A9000F82E97E6C92E92E0D92EDB1509F443C053
:100AA000C09181028C2F90E00E94980C8C01AA24A6
:100AB000A394AD0E0E9452048D2F8F710E94560395
:100AC000809376024801CC2341F08FEF0E945603B9
:100AD000F40181934F01C150F6CF0E944F04FF9261
:100AE000EF920E94750A80918102E801C80FD11D22
:100AF0000F900F902197C017D10760F088811F9247
:100B00008F93DF92CF920E94750A0F900F900F90F3
:100B10000F90F0CF0115110511F4DA2DBECFC801E9
:100B20000E94300DFACF84E692E09F938F930E944B
:100B3000750A0F900F90DF91CF911F910F91FF9049
:100B4000EF90DF90CF90BF90AF909F908F900895DF
:100B50000E94520480E50E9456038093760283E748
:100B60000E9456030C944F0420916E0230916F0244
:100B700040917002509171022417350721F0682FBF
:100B8000822F0C94EE0308950E949B0460917D02D5
:100B9000616060937D0280E00E94880460E787E0E6
:100BA0000E94880481E00E94B40580917F0288231E
:100BB00039F04091810268E772E08AE00C94070501
:100BC00082E00E94AA04E5E8F2E0E49121E030E04E
:100BD00001C0220FEA95EAF72095622F682382E090
:100BE0000E94880410927F02089580E00E94B4055C
:100BF00080918402909185028230910538F0880FAF
:100C0000991F880F991F05970197F1F7809180022E
:100C1000882319F081EE0E947B0460917D026E7F33
:100C200060937D0280E00E94880482E00E94AA0412
:100C3000E5E8F2E0E49161E070E001C0660FEA955A
:100C4000EAF7682B82E00C9488048F929F92AF920F
:100C5000BF92CF92DF92EF92FF926B017C010E94D4
:100C60008F024B015C01C114D104E104F104F1F0E5
:100C70000E948F02DC01CB0188199909AA09BB09DE
:100C8000883E9340A105B10570F321E0C21AD10856
:100C9000E108F10888EE880E83E0981EA11CB11CC3
:100CA000C114D104E104F10419F7DDCFFF90EF90F6
:100CB000DF90CF90BF90AF909F908F900895CF938B
:100CC000DF93CDB7DEB7A0970FB6F894DEBF0FBEA7
:100CD000CDBF789484B5826084BD84B5816084BDC5
:100CE00085B5826085BD85B5816085BD80916E00CA
:100CF000816080936E0010928100809181008260FB
:100D00008093810080918100816080938100809137
:100D100080008160809380008091B1008460809326
:100D2000B1008091B00081608093B00080917A0022
:100D3000846080937A0080917A00826080937A0048
:100D400080917A00816080937A0080917A00806837
:100D500080937A001092C100E091DF01F091E001F0
:100D600082E08083E091DB01F091DC011082E09170
:100D7000DD01F091DE0180E180831092E701E091D6
:100D8000E301F091E40186E08083E091E101F091DC
:100D9000E201808180618083E091E101F091E201D4
:100DA000808188608083E091E101F091E20180819F
:100DB00080688083E091E101F091E20180818F7D84
:100DC000808360E070E081E892E00E942A0A89EF67
:100DD00091E00E94B0030E94CB031FB7F89480916A
:100DE0004601811124C0E6E4F2E08491EAE5F2E0F4
:100DF0009491E82FF0E0EE0FFF1FEE5CFD4FA59100
:100E0000B491EC91E92321F461E08AE00E94EE03C1
:100E10008AE00E94CF038CB580618CBD8CB5806464
:100E20008CBD8DE00E94CF038BE00E94CF038091A8
:100E300046018F5F809346011FBF80916E029091A3
:100E40006F028F3F2FEF920709F47DC0209170024F
:100E5000309171022F3F4FEF340709F474C08217AD
:100E6000930731F00E94CF03809170020E94CF035C
:100E700080E00E94B40581E00E943B0465E070E0E0
:100E800080E090E00E9425066FE584E00E948804DF
:100E900085E590E0A0E0B0E0809384029093850225
:100EA000A0938602B093870267E086E00E948804E0
:100EB0008DE10E94AA04182F0E94A8058DE10E94CE
:100EC000AA0491E0181390E090937E02811165C20C
:100ED0001092800260E08CE10E94880410928202ED
:100EE0006FE381E00E94880463E082E00E9488044E
:100EF00080E28093770211E160917702812F0E9456
:100F000088041F5F1731C1F763E083E00E94880403
:100F100085E0809381026CE40E94880460E787E0AA
:100F20000E94880482EE0E947B0481EE0E947B0472
:100F30006CE080E00E94880480E00E94AA04809314
:100F40007D020E949B040E94F4040E94C4050E943A
:100F5000F505609172027091730280917402909114
:100F6000750220E432E44FE050E00E94A70E1F9289
:100F70002F9384EE91E09F938F930E94750A8FEFD9
:100F80000E947B0480917602282F30E0982F917088
:100F90001F929F9335952795277033273F932F9363
:100FA00084FB992790F91F929F9385FB992790F9CD
:100FB0001F929F9386FB992790F91F929F931F92F0
:100FC0008F938BED90E09F938F930E94750A42E080
:100FD0006AE087ED91E00E942A0544E06CE08AEC2B
:100FE00091E00E94BC0441E060E181EC91E00E944C
:100FF0002A0546E061E186EB91E00E94BC0441E0F5
:1010000061E08FEA91E00E94BC0441E062E085EA81
:1010100091E00E94BC0441E065E08EE991E00E940D
:10102000BC0441E066E085E991E00E94BC0441E037
:1010300060E08DE891E00E94BC0442E06CE18FE743
:1010400091E00E94BC0486E00E94AA0488720FB658
:10105000F894DEBF0FBECDBF803241F021E090E0BA
:10106000883009F020E0E22FF92F02C0E2E0F0E042
:10107000EE0FFF1FE758FE4F859194919F938F933A
:101080008AE691E09F938F930E94750AE0917E0219
:10109000F0E0EE0FFF1FEA59FE4F859194919F9368
:1010A0008F9388E591E09F938F930E94750A81E06A
:1010B0000E94AA04182F80E00E94AA0480937D0257
:1010C0000FB6F894DEBF0FBECDBF83FD02C0112363
:1010D00029F082FD06C0E1E0F0E005C0E0E0F0E0CC
:1010E00002C0E2E0F0E0EE0FFF1FEE5AFE4F8591E6
:1010F00094919F938F9382E491E09F938F930E94AA
:10110000750A86E00E94AA048670E82FF0E0E65C8B
:10111000FE4F859194919F938F938CE291E09F93E2
:101120008F930E94750A88E00E94AA048F701F9214
:101130008F9380E291E09F938F930E94750A0FB680
:10114000F894DEBF0FBECDBF00E010E0B801E4E0D0
:1011500075956795EA95E1F7072E000C880B990BBA
:1011600040E10E946F030F5F1F4F0E37110571F7AB
:101170000E94CB0300E010E0B8016F707727072EC4
:10118000000C880B990B40E10E946F030F5F1F4F0B
:101190000E37110589F70E94CB03332433946E0177
:1011A00091E2C90ED11C55245A9427E4622E21E005
:1011B000722E3EE7432E4BEFA42EBB24B39455EC86
:1011C000852E51E0952E8FEC91E00E94D001892B65
:1011D00009F492C08FEC91E00E94AE01873609F0CD
:1011E0006BC03092C5010E94F50562E070E080E0BE
:1011F00090E00E94250688E191E00E945D030E9434
:10120000CB030E94F50586E00E94AA04682F60695E
:1012100086E00E94880480917E02882311F10E945A
:10122000F40460E084E00E948804FE0131968F019E
:101230005192CE16DF06E1F745E0B80180E10E9449
:10124000070581EE0E947B0440E2B80180EA0E941B
:10125000070560917D02677F60937D0280E00E94B8
:10126000880486E00E94AA04887F682F636086E075
:101270000E94880468E285E00E94880481E00E9460
:10128000B40580917E028823B9F161E070E080E0CE
:1012900090E00E94250680E00E94B40560E187E0AE
:1012A0000E94880483EE0E947B0480E00E94B405C3
:1012B00081E00E94B40520C08536F1F41092C5018A
:1012C00080E00E94B40560917D026D7F60937D0295
:1012D00080E00E94880486E00E94AA04682F6F764E
:1012E00086E00E94880480E00E94B4058DE291E0CF
:1012F0000E945D030E94CB038091C50181114AC009
:10130000F301242D11922A95E9F795E6E92EF12CA7
:1013100031E0E31AF10801F104EC11E08DE7282E29
:10132000622D85E00E9488040E94C405C5010197D2
:10133000F1F70E94F50589E00E94AA0480FD07C02C
:101340002A94015011094FEF2412EACFE1CFF8019E
:1013500080818F5F8083F4CF07E411E0F801619111
:101360008F01662371F0603110F470E002C06FE00D
:1013700070E0072E000C880B990B40E10E946F0370
:1013800004C082E192E00E94B0038016910631F71A
:101390000E94CB030E94770216CF181302C00E944E
:1013A000A80560E08DE10E94880492CDEFECF1E0A9
:1013B0001382128288EE93E0A0E0B0E084839583EC
:1013C000A683B7838AE091E09183808385EC90E0E7
:1013D0009587848784EC90E09787868780EC90E0FF
:1013E000918B808B81EC90E0938B828B82EC90E0F0
:1013F000958B848B86EC90E0978B868B118E128E6A
:10140000138E148EECE6F2E087E090E09383828303
:101410008AE090E09583848380E896E9A8E9B0E0CB
:1014200086839783A087B18780E28387128A138A95
:1014300085E0858B81E0868B85E090E0A0E0B0E0E0
:10144000848F958FA68FB78F8CE892E091838083ED
:10145000148608950F931F93CF93DF93009731F471
:101460006115710519F480E090E03AC08B01EC0140
:101470006EE070E081E090E00E947C0CFC01892B22
:1014800091F380E883830115110571F013870287BA
:1014900081E8838380918D0290918E02892B21F4C3
:1014A000F0938E02E0938D022097C9F0D187C08718
:1014B00083818260838380918F0290919002892B37
:1014C00071F4F0939002E0938F02809191029091D9
:1014D0009202892B21F4F0939202E0939102CF01C2
:1014E000DF91CF911F910F910895A0E0B0E0EBE75D
:1014F000FAE00C947E0EAE01495F5F4FDA016D9108
:101500007D91AD010DE812E0F80182819381DC014B
:1015100013962C911397286013962C930E949B0A84
:10152000D8011296ED91FC9113972381277F238395
:10153000E4E00C949A0EABE0B0E0E1EAFAE00C943F
:10154000700E6C017B018A01FC0117821682838177
:1015500081FFCCC1CE0101963C01F6019381F701D8
:1015600093FD859193FF81917F01882309F4BAC18E
:10157000853239F493FD859193FF81917F01853206
:1015800029F4B60190E00E94D60DE7CF912C212CD2
:10159000312CFFE1F315D8F08B3279F038F480323A
:1015A00079F08332A1F4232D20611DC08D3261F0CA
:1015B000803369F4232D216016C0832D8260382E7C
:1015C000E32DE4603E2E2AC0F32DF8601DC037FCE9
:1015D0002DC020ED280F2A3040F08E32B9F436FCB1
:1015E00081C1232D2064322E19C036FE06C08AE048
:1015F000989E200D1124922E11C0EAE02E9E200DFF
:101600001124222EF32DF0623F2E08C08C3621F4D7
:10161000832D8068382E02C0883641F4F70193FD8F
:10162000859193FF81917F018111B3CF982F9F7D89
:101630009554933028F40C5F1F4F9FE399830DC09E
:10164000833631F0833771F0833509F059C021C0FA
:10165000F801808189830E5F1F4F88248394912C29
:10166000530113C02801F2E04F0E511CF801A08075
:10167000B18036FE03C0692D70E002C06FEF7FEFCE
:10168000C5010E94CB0D4C018201F32DFF773F2E47
:1016900016C0280122E0420E511CF801A080B18042
:1016A00036FE03C0692D70E002C06FEF7FEFC50109
:1016B0000E94B90D4C01F32DF0683F2E820133FCDE
:1016C0001BC0822D90E088169906B0F4B60180E226
:1016D00090E00E94D60D2A94F4CFF50137FC859155
:1016E00037FE81915F01B60190E00E94D60D211076
:1016F0002A9421E0821A91088114910471F7E8C0BC
:10170000843611F0893641F5F80137FE07C0608153
:101710007181828193810C5F1F4F08C0608171814C
:10172000072E000C880B990B0E5F1F4FF32DFF76D1
:101730003F2E97FF09C090958095709561957F4FDA
:101740008F4F9F4FF0683F2E2AE030E0A3010E94A8
:10175000120E882E861845C0853731F4232D2F7E32
:10176000B22E2AE030E025C0932D997FB92E8F3616
:10177000C1F018F4883579F0B5C0803719F0883792
:1017800021F0B0C0E92FE061BE2EB4FE0DC0FB2DEC
:10179000F460BF2E09C034FE0AC0292F2660B22E85
:1017A00006C028E030E005C020E130E002C020E1C2
:1017B00032E0F801B7FE07C06081718182819381B8
:1017C0000C5F1F4F06C06081718180E090E00E5F6A
:1017D0001F4FA3010E94120E882E8618FB2DFF7743
:1017E0003F2E36FE0DC0232D2E7FA22E891458F4D5
:1017F00034FE0BC032FC09C0832D8E7EA82E05C09E
:10180000B82CA32C03C0B82C01C0B92CA4FE0FC067
:10181000FE01E80DF11D8081803321F49A2D997E1F
:10182000A92E09C0A2FE06C0B394B39404C08A2DA9
:10183000867809F0B394A3FC11C0A0FE06C0B214D0
:1018400088F4280C922C9B180EC0B21460F4B601D8
:1018500080E290E00E94D60DB394F7CFB21418F452
:101860002B1802C0982C212CA4FE10C0B60180E3D6
:1018700090E00E94D60DA2FE17C0A1FC03C088E72D
:1018800090E002C088E590E0B6010CC08A2D867811
:1018900059F0A1FE02C08BE201C080E2A7FC8DE2FC
:1018A000B60190E00E94D60D891438F4B60180E3A9
:1018B00090E00E94D60D9A94F7CF8A94F301E80D38
:1018C000F11D8081B60190E00E94D60D8110F5CF08
:1018D000222009F442CEB60180E290E00E94D60DAB
:1018E0002A94F6CFF6018681978102C08FEF9FEF91
:1018F0002B96E2E10C948C0E0F931F93CF93DF9302
:10190000869F8001879F100D969F100D1124C8019E
:101910000E94980CEC01009729F0A80160E070E0AB
:101920000E94C40DCE01DF91CF911F910F910895B8
:101930000F931F93CF93DF938230910510F482E0D1
:1019400090E0E0919502F091960220E030E0A0E076
:10195000B0E0309719F1408151810281138148171D
:101960005907C8F08417950769F4109731F012965B
:101970000C93129713961C9327C000939502109313
:10198000960222C02115310519F04217530718F4A9
:101990009A01BD01EF01DF01F801DBCF211531050F
:1019A000F9F0281B390B2430310580F48A819B81A2
:1019B0006115710521F0FB019383828304C090932C
:1019C000960280939502FE01329644C0FE01E20F1A
:1019D000F31F8193919322503109398328833AC0B0
:1019E0002091930230919402232B41F42091020123
:1019F00030910301309394022093930220910001CF
:101A0000309101012115310541F42DB73EB74091C8
:101A1000040150910501241B350BE0919302F091D4
:101A20009402E217F307A0F42E1B3F0B2817390787
:101A300078F0AC014E5F5F4F2417350748F04E0F2A
:101A40005F1F50939402409393028193919302C03D
:101A5000E0E0F0E0CF01DF91CF911F910F91089569
:101A6000CF93DF93009709F481C0FC013297138272
:101A70001282A0919502B0919602109781F4208174
:101A80003181820F931F2091930230919402281785
:101A9000390751F5F0939402E093930267C0ED018A
:101AA00020E030E0CE17DF0740F44A815B819E01E1
:101AB00041155105F1F0EA01F5CFD383C28340818E
:101AC0005181840F951FC817D90759F488819981CE
:101AD000840F951F0296918380838A819B819383D3
:101AE00082832115310529F4F0939602E093950243
:101AF0003DC0E901FB83EA8349915991C40FD51F89
:101B0000EC17FD0761F480819181840F951F029687
:101B1000E90199838883828193819B838A83E0E0B2
:101B2000F0E012968D919C911397009719F0FD01AA
:101B3000DC01F7CF8D919C9111979D012E5F3F4F56
:101B4000820F931F20919302309194022817390736
:101B500069F4309729F4109296021092950202C00F
:101B600013821282B0939402A0939302DF91CF91DB
:101B70000895FC010590615070400110D8F78095E0
:101B800090958E0F9F1F0895DC0101C06D93415009
:101B90005040E0F70895FC01615070400190011041
:101BA000D8F7809590958E0F9F1F08950F931F93E0
:101BB000CF93DF93FB01238121FD03C08FEF9FEFC4
:101BC0002CC022FF16C046815781248135814217DF
:101BD000530744F4A081B1819D012F5F3F4F3183B2
:101BE00020838C93268137812F5F3F4F3783268355
:101BF00014C08B01EC01FB010084F185E02D0995F7
:101C0000892BE1F6D80116968D919C911797019634
:101C100017969C938E931697CE01DF91CF911F91CB
:101C20000F910895FA01AA27283051F1203181F14E
:101C3000E8946F936E7F6E5F7F4F8F4F9F4FAF4FD4
:101C4000B1E03ED0B4E03CD0670F781F891F9A1FE7
:101C5000A11D680F791F8A1F911DA11D6A0F711D9B
:101C6000811D911DA11D20D009F468943F912AE0A7
:101C7000269F11243019305D3193DEF6CF0108958F
:101C8000462F4770405D4193B3E00FD0C9F7F6CFC0
:101C9000462F4F70405D4A3318F0495D31FD405288
:101CA000419302D0A9F7EACFB4E0A695979587951E
:101CB00077956795BA95C9F70097610571050895FD
:101CC0009B01AC010A2E06945795479537952795A9
:101CD000BA95C9F7620F731F841F951FA01D089541
:101CE0002F923F924F925F926F927F928F929F922C
:101CF000AF92BF92CF92DF92EF92FF920F931F931A
:101D0000CF93DF93CDB7DEB7CA1BDB0B0FB6F894CA
:101D1000DEBF0FBECDBF09942A88398848885F840A
:101D20006E847D848C849B84AA84B984C884DF807B
:101D3000EE80FD800C811B81AA81B981CE0FD11D5F
:101D40000FB6F894DEBF0FBECDBFED010895A1E23E
:101D50001A2EAA1BBB1BFD010DC0AA1FBB1FEE1F25
:101D6000FF1FA217B307E407F50720F0A21BB30B70
:101D7000E40BF50B661F771F881F991F1A9469F7EC
:101D800060957095809590959B01AC01BD01CF0148
:101D90000895EE0FFF1F0590F491E02D099481E066
:0C1DA00090E0F8940C94D40EF894FFCF5F
:101DAC0000009702200000000000080271019F0152
:101DBC005502D001AE01C2015374617274696E6731
:101DCC002043617272696572204F75740053746F91
:101DDC007070696E672043617272696572204F750D
:061DEC0074000D0A000066
:00000001FF
