:100000000C9463000C948B000C948B000C948B006C
:100010000C948B000C948B000C948B000C948B0034
:100020000C948B000C948B000C948B000C948B0024
:100030000C948B000C948B000C948B000C948B0014
:100040000C94AA030C948B000C941A040C94F403E3
:100050000C948B000C948B000C948B000C948B00F4
:100060000C948B000C948B000A0B0C0D0E0F0001EE
:100070000203040500000008000201000003040759
:100080000000000000000000000000002500280023
:100090002B0000000000240027002A0004040404B0
:1000A0000404040402020202020203030303030322
:1000B00001020408102040800102040810200102FF
:1000C000040810204C0411241FBECFEFD8E0DEBF7F
:1000D000CDBF22E0A4EBB1E001C01D92AA39B20766
:1000E000E1F711E0A0E0B1E0ECE5F0E102C005903D
:1000F0000D92A43BB107D9F710E0C3E6D0E004C0ED
:100100002197FE010E942108C236D107C9F70E943B
:10011000A0040C942C080C94000090E0FC01E05525
:10012000FF4F2491FC01E456FF4F8491882399F0FE
:1001300090E0880F991FFC01EE56FF4FA591B491F6
:10014000FC01E857FF4F859194918FB7F894EC919B
:10015000E22BEC938FBF089590E0FC01EC58FF4F29
:100160002491FC01E055FF4F3491FC01E456FF4F10
:10017000E491EE2309F43CC0222339F1233091F0BD
:1001800038F42130A9F0223001F584B58F7D12C0FA
:10019000273091F02830A1F02430B9F4809180000C
:1001A0008F7D03C0809180008F77809380000DC089
:1001B00084B58F7784BD09C08091B0008F7703C06C
:1001C0008091B0008F7D8093B000F0E0EE0FFF1FB4
:1001D000E857FF4FA591B4919FB7F894611104C0FF
:1001E0008C913095382302C0EC913E2B3C939FBFFD
:1001F0000895682F80917E020E94AC008091960243
:10020000909197028230910538F0880F991F880FDE
:10021000991F05970197F1F7089581E00C94F90073
:100220003FB7F8948091D8019091D901A091DA015B
:10023000B091DB0126B5A89B05C02F3F19F00196B0
:10024000A11DB11D3FBFBA2FA92F982F8827820F5C
:10025000911DA11DB11DBC01CD0142E0660F771FAC
:10026000881F991F4A95D1F708958F929F92AF9258
:10027000BF92CF92DF92EF92FF926B017C010E94BE
:1002800010014B015C01C114D104E104F104F1F04F
:100290000E941001DC01CB0188199909AA09BB0948
:1002A000883E9340A105B10570F321E0C21AD10840
:1002B000E108F10888EE880E83E0981EA11CB11CAD
:1002C000C114D104E104F10419F7DDCFFF90EF90E0
:1002D000DF90CF90BF90AF909F908F900895CF9276
:1002E000DF92EF92FF920F931F93CF93DF936C01F6
:1002F0007A018B01C0E0D0E0CE15DF0581F0D80196
:100300006D918D01D601ED91FC910190F081E02D70
:10031000C6010995892B11F02196EECF7E01C70108
:10032000DF91CF911F910F91FF90EF90DF90CF90D1
:100330000895089580E090E00895FC01538D448D68
:10034000252F30E0842F90E0821B930B541710F080
:10035000CF96089501970895FC01918D828D98178D
:1003600061F0828DDF01A80FB11D5D968C91928D99
:100370009F5F9F73928F90E008958FEF9FEF089596
:10038000FC01918D828D981731F0828DE80FF11D5F
:10039000858D90E008958FEF9FEF0895FC01918D7A
:1003A000228D892F90E0805C9F4F821B91098F7373
:1003B000992708958CED91E00E94CE0121E0892BD0
:1003C00009F420E0822F0895FC01848DDF01A80F3D
:1003D000B11DA35ABF4F2C91848D90E001968F736D
:1003E0009927848FA689B7892C93A089B1898C918C
:1003F000837080648C93938D848D981306C00288DB
:10040000F389E02D80818F7D80830895EF92FF92A4
:100410000F931F93CF93DF93EC0181E0888F9B8D27
:100420008C8D981305C0E889F989808185FD26C0E7
:10043000F62E0B8D10E00F5F1F4F0F731127E02E6C
:100440008C8DE8120CC00FB607FCFACFE889F98949
:10045000808185FFF5CFCE010E94E401F1CF8B8D25
:10046000FE01E80FF11DE35AFF4FF0829FB7F894A9
:100470000B8FEA89FB89808180620AC09FB7F8945C
:10048000EE89FF896083E889F989808183708064BF
:1004900080839FBF81E090E0DF91CF911F910F910A
:1004A000FF90EF900895CF93DF93EC01888D882320
:1004B000C9F0EA89FB89808185FD05C0A889B989D1
:1004C0008C9186FD0FC00FB607FCF5CF808185FFAC
:1004D000F2CFA889B9898C9185FFEDCFCE010E941A
:1004E000E401E7CFDF91CF91089580E090E0892B80
:1004F00029F00E94DA0181110C94000008958EBD4C
:1005000000000DB407FEFDCF8EB508950F931F9325
:100510000091800210918102209182023091830229
:1005200040E052E16AE770E090E004171507260703
:10053000370740F476956795579547959F5F9630B6
:10054000A1F797E081E08927982F906A96958170AE
:100550009CBD8DBD80E01F910F910C94F900CF934D
:10056000C82F0E9486028C2F80620E947F02809397
:100570008402CF910C940D01CF93C82F0E94860264
:100580008C2F0E947F02809384028FEF0E947F0253
:10059000C82F0E940D018C2FCF910895FF920F93C9
:1005A0001F93CF93DF93182FF62ED72FC42F0E94BF
:1005B0008602812F80620E947F02809384020F2D29
:1005C0001D2FCC2339F0F80181918F010E947F0209
:1005D000C150F7CFDF91CF911F910F91FF900C94F5
:1005E0000D010E94860280E50E947F0280938402B2
:1005F00083E70E947F020C940D01CF93DF93D82FE5
:10060000C62F0E9486028D2F80620E947F028093F7
:1006100084028C2F0E947F02DF91CF910C940D01F8
:1006200060918B0261FD0AC0626060938B0280E082
:100630000E94FD028BE19EE40197F1F70895009777
:1006400069F0FC0101900020E9F73197AF01481BE8
:10065000590BBC018CED91E00C946F0180E090E0AF
:1006600008950C941F038F929F92AF92BF92CF92E6
:10067000DF92EF92FF920F931F93CF93DF93CDB74B
:10068000DEB7A1970FB6F894DEBF0FBECDBF6C01E9
:10069000990FEE08FF08F7FE2BC06DE28CED91E09C
:1006A0000E9406028C0122273327A9012C193D093B
:1006B0004E095F0919A2CE0181967C019AE0892E2C
:1006C000912CA12CB12CCA01B901A50194010E9461
:1006D000FF07605DF70162937F0121153105410538
:1006E000510589F7CF010E941F03800F911F1DC084
:1006F000A701960119A28E010F5D1F4F8AE0C82E37
:10070000D12CE12CF12CCA01B901A70196010E945C
:10071000FF07605DF80162938F01211531054105E6
:10072000510589F7CF010E941F03A1960FB6F894D7
:10073000DEBF0FBECDBFDF91CF911F910F91FF9014
:10074000EF90DF90CF90BF90AF909F908F900895E3
:100750000E9427081F920F920FB60F9211242F9319
:100760003F938F939F93AF93BF938091D4019091C8
:10077000D501A091D601B091D7013091D30123E0EA
:10078000230F2D3720F40196A11DB11D05C026E8C9
:10079000230F0296A11DB11D2093D3018093D40194
:1007A0009093D501A093D601B093D7018091D80141
:1007B0009091D901A091DA01B091DB010196A11DC0
:1007C000B11D8093D8019093D901A093DA01B09321
:1007D000DB01BF91AF919F918F913F912F910F902E
:1007E0000FBE0F901F9018951F920F920FB60F9289
:1007F00011242F933F934F935F936F937F938F9326
:100800009F93AF93BF93EF93FF938CED91E00E9482
:10081000E401FF91EF91BF91AF919F918F917F91F3
:100820006F915F914F913F912F910F900FBE0F905D
:100830001F9018951F920F920FB60F9211242F93AD
:100840008F939F93EF93FF93E091EC01F091ED0173
:100850008081E091F201F091F30182FD12C090815C
:100860008091F5018F5F8F732091F601821751F00F
:10087000E091F501F0E0E452FE4F958F8093F50191
:1008800001C08081FF91EF919F918F912F910F90E7
:100890000FBE0F901F901895ECEDF1E013821282BD
:1008A00088EE93E0A0E0B0E084839583A683B783CD
:1008B00084E291E09183808385EC90E09587848742
:1008C00084EC90E09787868780EC90E0918B808B1A
:1008D00081EC90E0938B828B82EC90E0958B848B03
:1008E00086EC90E0978B868B118E128E138E148E71
:1008F000EAE7F2E087E090E0938382838AE090E089
:100900009583848380E896E9A8E9B0E0868397839D
:10091000A087B18780E28387128A138A85E0858B5E
:1009200081E0868B85E090E0A0E0B0E0848F958F39
:10093000A68FB78F89E792E091838083148608950C
:10094000CF93DF93CDB7DEB7A6970FB6F894DEBF8F
:100950000FBECDBF789484B5826084BD84B58160BC
:1009600084BD85B5826085BD85B5816085BD80917A
:100970006E00816080936E001092810080918100F2
:1009800082608093810080918100816080938100EA
:10099000809180008160809380008091B1008460AC
:1009A0008093B1008091B00081608093B00080910D
:1009B0007A00846080937A0080917A0082608093CC
:1009C0007A0080917A00816080937A0080917A0029
:1009D000806880937A001092C100E091EC01F09160
:1009E000ED0182E08083E091E801F091E90110825D
:1009F000E091EA01F091EB0180E180831092F40133
:100A0000E091F001F091F10186E08083E091EE0148
:100A1000F091EF01808180618083E091EE01F0919F
:100A2000EF01808188608083E091EE01F091EF0119
:100A3000808180688083E091EE01F091EF018081F8
:100A40008F7D80831FB7F8948091B401811124C0F9
:100A5000E6EAF0E08491EAEBF0E09491E82FF0E030
:100A6000EE0FFF1FEE56FF4FA591B491EC91E923D5
:100A700021F461E08AE00E94AC008AE00E948D00CF
:100A80008CB580618CBD8CB580648CBD8DE00E947E
:100A90008D008BE00E948D008091B4018F5F809368
:100AA000B4011FBF80917C0290917D028F3F2FEF98
:100AB000920709F488C020917E0230917F022F3F77
:100AC0004FEF340709F47FC08217930731F00E947B
:100AD0008D0080917E020E948D0080917C02909119
:100AE0007D0220917E0230917F028217930719F0D8
:100AF00060E00E94AC0081E00E94F90065E070E0D7
:100B000080E090E00E9435016FE584E00E94FD02E4
:100B100085E590E0A0E0B0E080939202909393028C
:100B2000A0939402B093950267E086E00E94FD02D4
:100B30008DE10E94BC02182F0E94F1028DE10E94FB
:100B4000BC0291E0181390E090938C028111D0C008
:100B500010928E0260E08CE10E94FD0210929002E1
:100B60006FE381E00E94FD0263E082E00E94FD02EB
:100B700080E28093850211E160918502812F0E94BD
:100B8000FD021F5F1731C1F763E083E00E94FD02A1
:100B900085E080938F026CE40E94FD0260E787E0AD
:100BA0000E94FD0282EE0E94AF0281EE0E94AF021F
:100BB0006CE080E00E94FD0280E00E94BC02809315
:100BC0008B020E9410036EE685E00E94FD0286E023
:100BD0000E94BC02877D4BE950E060E070E04093EA
:100BE0009202509393026093940270939502682F3F
:100BF000606286E00E94FD0286E00E94BC0286E000
:100C00000E94BC02682F676086E00E94FD0288E7B0
:100C10008F8F88A389A38AA38BA31CA21DA21EA2C7
:100C2000E9E6F0E0849140918F02BE01615E7F4F62
:100C30000E94CE0282E00E94BC02EFE6F0E0E49166
:100C400061E070E001C0660FEA95EAF7682B82E088
:100C50000E94FD020E94100360918B02616060930C
:100C60008B0280E00E94FD0260E787E00E94FD02A7
:100C700080917C0290917D0220917E0230917F02D2
:100C80008217930719F061E00E94AC0080918D02F9
:100C9000882341F040918F0266E872E08AE00E946A
:100CA000CE0214C082E00E94BC02EEE6F0E0E491C5
:100CB00021E030E001C0220FEA95EAF72095622F8B
:100CC000682382E00E94FD0210928D0264E670E0CB
:100CD00080E090E00E9435018FEF0E94AF0280918A
:100CE000840290E0959587958770863050F082C198
:100CF000181302C00E94F10260E08DE10E94FD0223
:100D000027CF80919002811108C010918502012F98
:100D10001F3108F00EE1101B02C010E00EE10E942E
:100D2000860281E60E947F0280938402CE010196B2
:100D30007C01015038F08FEF0E947F02F701819310
:100D40007F01F7CF112329F08FEF0E947F0211500E
:100D5000F9CF0E940D0160E487E00E94FD028981C5
:100D60009A819093D2018093D1018B819C81909341
:100D7000D0018093CF018D819E819093CE0180938D
:100D8000CD018F8198859093CC018093CB0189858B
:100D90009A859093CA018093C9018B859C85909315
:100DA000C8018093C7018D859E859093C60180936D
:100DB000C5018F8598899093C4018093C301898967
:100DC0009A899093C2018093C1018B899C899093E9
:100DD000C0018093BF018D899E899093BE0180934D
:100DE000BD018F89988D9093BC018093BB01898D43
:100DF0009A8D9093BA018093B9018B8D9C8D9093BD
:100E0000B8018093B7018D8D9E8D9093B60180932C
:100E1000B50182E391E00E9431038091D10190916C
:100E2000D2010E94330387E391E00E94310389E3FA
:100E300091E00E9431038091CF019091D0010E94F6
:100E400033038FE391E00E9431038091CD019091B3
:100E5000CE01019739F481E491E00E9431038CE1E5
:100E600091E006C083E491E00E94310388E191E0C3
:100E70000E94310389E491E00E9431038091CB010B
:100E80009091CC010E9433038FE491E00E943103E2
:100E900081E591E00E9431038091C9019091CA01DE
:100EA0000E94330387E591E00E9431038091C701DE
:100EB0009091C801019739F489E591E00E943103CE
:100EC00084E191E006C089E591E00E94310380E170
:100ED00091E00E94310381E691E00E94310380910C
:100EE000C5019091C6010E94330387E691E00E94FC
:100EF00031038091C3019091C4010E94330380911A
:100F0000C1019091C201019739F48DE691E00E94F0
:100F100031038CE091E006C08FE691E00E9431033E
:100F200088E091E00E94310385E791E00E9431035F
:100F30008091BF019091C0010E9433038FE491E042
:100F40000E9431038BE791E00E9431038091BD0143
:100F50009091BE010E94330387E591E00E94310326
:100F60008091BB019091BC01019739F481E891E037
:100F70000E94310384E091E006C081E891E00E9484
:100F8000310380E091E00E94310389E891E00E9402
:100F900031038091B9019091BA010E9433038FE42B
:100FA00091E00E9431038FE891E00E94310380912B
:100FB000B7019091B8010E94330387E591E00E9448
:100FC000310385E991E00E9431038091B501909150
:100FD000B6010E94330387E391E00E9431038FE959
:100FE00091E00E941F0381EA91E00E941F030E948A
:100FF00075026CCE84EA91E00E943103F8CFA1E241
:101000001A2EAA1BBB1BFD010DC0AA1FBB1FEE1F82
:10101000FF1FA217B307E407F50720F0A21BB30BCD
:10102000E40BF50B661F771F881F991F1A9469F749
:1010300060957095809590959B01AC01BD01CF01A5
:101040000895EE0FFF1F0590F491E02D099481E0C3
:0C10500090E0F8940C942C08F894FFCF6A
:10105C004F4646004F4E20004F4646004F4E200054
:10106C004F4646004F4E20004F4646004F4E200044
:10107C000000000006026F019D015302CE01AC017D
:10108C00C00168203D3A0025002074203D3A004301
:10109C00002020204731533A00204731563A005661
:1010AC0000204731413A0041002020204732533A7A
:1010BC0000204732563A00204732413A0020202087
:1010CC005031533A00205031563A00205031413AB9
:1010DC00002020205032533A00205032563A002043
:1010EC005032413A0020505F6C696D282529002050
:1010FC00000D0A004E6F207472616E736D6973730C
:04110C00696F6E0099
:00000001FF
