:100000000C9463000C948B000C948B000C948B006C
:100010000C948B000C948B000C948B000C948B0034
:100020000C948B000C948B000C948B000C948B0024
:100030000C948B000C948B000C948B000C948B0014
:100040000C949B030C948B000C940B040C94E50310
:100050000C948B000C948B000C948B000C948B00F4
:100060000C948B000C948B000A0B0C0D0E0F0001EE
:100070000203040500000008000201000003040759
:100080000000000000000000000000002500280023
:100090002B0000000000240027002A0004040404B0
:1000A0000404040402020202020203030303030322
:1000B00001020408102040800102040810200102FF
:1000C000040810203D0411241FBECFEFD8E0DEBF8E
:1000D000CDBF22E0A2ECB1E001C01D92A43CB2076A
:1000E000E1F711E0A0E0B1E0ECE2F2E102C005903E
:1000F0000D92A23CB107D9F710E0C3E6D0E004C0EE
:100100002197FE010E940509C236D107C9F70E9456
:1001100091040C9414090C94000090E0FC01E0554B
:10012000FF4F249184569F4FFC018491882399F0BE
:1001300090E0880F991FFC01EE56FF4FA591B491F6
:10014000FC01E857FF4F859194918FB7F894EC919B
:10015000E22BEC938FBF089590E0FC01EC58FF4F29
:100160002491FC01E055FF4F3491FC01E456FF4F10
:10017000E491EE23C9F0222339F0233001F1A8F4F1
:10018000213019F1223029F1F0E0EE0FFF1FE8577E
:10019000FF4FA591B4918FB7F894EC91611126C0EF
:1001A00030953E233C938FBF08952730A9F0283027
:1001B000C9F0243049F7809180008F7D03C0809181
:1001C00080008F7780938000DFCF84B58F7784BDE8
:1001D000DBCF84B58F7DFBCF8091B0008F7780938C
:1001E000B000D2CF8091B0008F7DF9CF3E2BDACF17
:1001F000682F8091A8020E94AC008091C00290916B
:10020000C1028230910538F0880F991F880F991F1D
:1002100005970197F1F7089581E00C94F8003FB736
:10022000F8948091020290910302A0910402B0918F
:10023000050226B5A89B05C02F3F19F00196A11D08
:10024000B11D3FBFBA2FA92F982F8827BC01CD0120
:10025000620F711D811D911D42E0660F771F881F7F
:10026000991F4A95D1F708958F929F92AF92BF92AE
:10027000CF92DF92EF92FF924B015C010E940F013F
:100280006B017C010E940F016C197D098E099F0989
:10029000683E734081059105A8F321E0821A910818
:1002A000A108B10888EEC80E83E0D81EE11CF11C3D
:1002B00081149104A104B10429F7FF90EF90DF901D
:1002C000CF90BF90AF909F908F900895AF92BF92C4
:1002D000CF92DF92EF92FF920F931F93CF93DF9312
:1002E0006C017B018B01040F151FEB015E01AE1841
:1002F000BF08C017D10759F06991D601ED91FC9163
:100300000190F081E02DC6010995892B79F7C5018F
:10031000DF91CF911F910F91FF90EF90DF90CF90E1
:10032000BF90AF900895FC01538D448D252F30E090
:10033000842F90E0821B930B541710F0CF960895F2
:1003400001970895FC01918D828D981761F0A28D1F
:10035000AE0FBF2FB11D5D968C91928D9F5F9F73E5
:10036000928F90E008958FEF9FEF0895FC01918D9B
:10037000828D981731F0828DE80FF11D858D90E008
:1003800008958FEF9FEF0895FC01918D228D892FA5
:1003900090E0805C9F4F821B91098F73992708958D
:1003A00086E092E00E94C40121E0892B09F420E05C
:1003B000822F089580E090E0892B29F00E94D001DF
:1003C00081110C9400000895FC01A48DA80FB92F91
:1003D000B11DA35ABF4F2C91848D90E001968F736D
:1003E0009927848FA689B7892C93A089B1898C918C
:1003F000837080648C93938D848D981306C00288DB
:10040000F389E02D80818F7D80830895EF92FF92A4
:100410000F931F93CF93DF93EC0181E0888F9B8D27
:100420008C8D98131AC0E889F989808185FF15C0E1
:100430009FB7F894EE89FF896083E889F989808104
:100440008370806480839FBF81E090E0DF91CF91D3
:100450001F910F91FF90EF900895F62E0B8D10E0F5
:100460000F5F1F4F0F731127E02E8C8D8E110CC064
:100470000FB607FCFACFE889F989808185FFF5CFAF
:10048000CE010E94E401F1CFEB8DEC0FFD2FF11DA9
:10049000E35AFF4FF0829FB7F8940B8FEA89FB89EC
:1004A00080818062CFCFCF93DF93EC01888D88234A
:1004B000B9F0AA89BB89E889F9898C9185FD03C0C7
:1004C000808186FD0DC00FB607FCF7CF8C9185FFAC
:1004D000F2CF808185FFEDCFCE010E94E401E9CF0C
:1004E000DF91CF9108958EBD00000DB407FEFDCFC2
:1004F0008EB508950F931F930091AA021091AB023D
:100500002091AC023091AD0240E052E16AE770E028
:1005100080E0041715072607370740F4769567959E
:10052000579547958F5F8630A1F787E0982F906A9F
:100530009695809581709CBD8DBD80E01F910F9137
:100540000C94F800CF93C82F0E947A028C2F8062FF
:100550000E9473028093AE02CF910C940C01CF9352
:10056000C82F0E947A028C2F0E9473028093AE02E1
:100570008FEF0E947302C82F0E940C018C2FCF9125
:100580000895FF920F931F93CF93DF93C82FF62EFA
:10059000072F142F0E947A028C2F80620E94730210
:1005A0008093AE02CF2DD02F115020F089910E9460
:1005B0007302FACFDF91CF911F910F91FF900C94AE
:1005C0000C010E947A0280E50E9473028093AE02C1
:1005D00083E70E9473020C940C01CF93DF93D82F12
:1005E000C62F0E947A028D2F80620E947302809330
:1005F000AE028C2F0E947302DF91CF910C940C01FC
:100600006091B50261FD0AC062606093B50280E04E
:100610000E94ED028BE19EE40197F1F70895FC0141
:1006200001900020E9F73197AF01481B590BBC013D
:1006300086E092E00C9466010C940F038F929F92D7
:10064000AF92BF92CF92DF92EF92FF920F931F93E0
:10065000CF93DF93CDB7DEB7A1970FB6F894DEBF87
:100660000FBECDBF6C01990FEE08FF08F7FE41C029
:100670006DE286E092E00E9406028C012227332779
:10068000A9012C193D094E095F0919A2CE018196D5
:100690007C019AE0892E912CA12CB12CCA01B901C0
:1006A000A50194010E94E308605DF70162937F0158
:1006B000211531054105510589F790E080E030971B
:1006C00019F0CF010E940F03800F911FA1960FB662
:1006D000F894DEBF0FBECDBFDF91CF911F910F9178
:1006E000FF90EF90DF90CF90BF90AF909F908F9052
:1006F0000895A701960119A28E010F5D1F4F8AE090
:10070000C82ED12CE12CF12CCA01B901A701960108
:100710000E94E308605DF80162938F0121153105A5
:100720004105510589F790E080E0309779F2CF01DB
:100730000E940F03CBCF1F920F920FB60F9211247E
:100740002F933F938F939F93AF93BF938091FE011D
:100750009091FF01A0910002B09101023091FD0142
:1007600023E0230F2D3758F50196A11DB11D2093CD
:10077000FD018093FE019093FF01A0930002B093CE
:1007800001028091020290910302A0910402B091B3
:1007900005020196A11DB11D8093020290930302F0
:1007A000A0930402B0930502BF91AF919F918F91E6
:1007B0003F912F910F900FBE0F901F90189526E834
:1007C000230F0296A11DB11DD2CF1F920F920FB61B
:1007D0000F9211242F933F934F935F936F937F93C7
:1007E0008F939F93AF93BF93EF93FF9386E092E035
:1007F0000E94E401FF91EF91BF91AF919F918F9182
:100800007F916F915F914F913F912F910F900FBE0C
:100810000F901F9018951F920F920FB60F921124F0
:100820002F938F939F93EF93FF93E0911602F09194
:1008300017028081E0911C02F0911D0282FD1BC015
:10084000908180911F028F5F8F7320912002821709
:1008500041F0E0911F02F0E0EA5FFD4F958F809339
:100860001F02FF91EF919F918F912F910F900FBEDB
:100870000F901F9018958081F4CFE6E0F2E013828C
:10088000128288EE93E0A0E0B0E084839583A68393
:10089000B7838AE291E09183808385EC90E095872D
:1008A000848784EC90E09787868780EC90E0918B3A
:1008B000808B81EC90E0938B828B82EC90E0958B27
:1008C000848B86EC90E0978B868B118E128E138E24
:1008D000148EE4EAF2E087E090E0938382838AE07A
:1008E00090E09583848380E896E9A8E9B0E0868368
:1008F0009783A087B18780E28387128A138A85E075
:10090000858B81E0868B85E090E0A0E0B0E0848F6D
:10091000958FA68FB78F83EA92E0918380831486A8
:100920000895789484B5826084BD84B5816084BD67
:1009300085B5826085BD85B5816085BD80916E007D
:10094000816080936E0010928100809181008260AE
:1009500080938100809181008160809381008091EB
:1009600080008160809380008091B10084608093DA
:10097000B1008091B00081608093B00080917A00D6
:10098000846080937A0080917A00826080937A00FC
:1009900080917A00816080937A0080917A008068EB
:1009A00080937A001092C100E0911602F091170234
:1009B00082E08083E0911202F09113021082E091B4
:1009C0001402F091150280E1808310921E02E091E2
:1009D0001A02F0911B0286E08083E0911802F091E8
:1009E0001902808180618083E0911802F0911902E0
:1009F000808188608083E0911802F09119028081E3
:100A000080688083E0911802F091190280818F7DC7
:100A10008083CFB7F8948091C201811124C0E6EAA7
:100A2000F0E08491EAEBF0E09491E82FF0E0EE0F33
:100A3000FF1FEE56FF4FA591B491EC91E92321F4ED
:100A400061E08AE00E94AC008AE00E948D008CB5D3
:100A500080618CBD8CB580648CBD8DE00E948D0062
:100A60008BE00E948D008091C2018F5F8093C20154
:100A7000CFBF8091A6029091A7028F3F980709F4FB
:100A80008FC02091A8023091A9022F3F320709F4AC
:100A900087C08217930731F00E948D008091A802D1
:100AA0000E948D008091A6029091A7022091A80239
:100AB0003091A9028217930719F060E00E94AC0000
:100AC00081E00E94F80065E070E080E090E00E9424
:100AD00034016FE584E00E94ED0285E590E0A0E03E
:100AE000B0E08093BC029093BD02A093BE02B0938D
:100AF000BF0267E086E00E94ED028DE10E94AF0236
:100B0000C82F0E94E1028DE10E94AF0291E0C8135C
:100B100090E09093B602882341F0C81302C00E946F
:100B2000E10260E08DE10E94ED021092B80260E007
:100B30008CE10E94ED021092BA026FE381E00E9404
:100B4000ED0263E082E00E94ED0280E28093AF025A
:100B5000C1E16091AF028C2F0E94ED02CF5FC731DF
:100B6000C1F763E083E00E94ED0285E08093B90263
:100B70006CE40E94ED0260E787E00E94ED0282EEE5
:100B80000E94A20281EE0E94A2026CE080E00E941C
:100B9000ED0280E00E94AF028093B5020E94000344
:100BA0004091B90250E060E271E080EB92E00E9477
:100BB0000B0981E08093B702E8E6F0E08491409170
:100BC000B90260E271E00E94C10282E00E94AF02BD
:100BD000CEE6D0E0FE01949161E070E001C0660FC6
:100BE0009A95EAF7682B82E00E94ED0286E00E9467
:100BF000AF02682F676086E00E94ED0286E00E94E7
:100C0000AF02877D4BE950E060E070E04093BC02AA
:100C10005093BD026093BE027093BF02682F606262
:100C200086E00E94ED0286E00E94AF020E9400036F
:100C30006091B50261606093B50280E00E94ED02B0
:100C400060E787E00E94ED028091A6029091A702E2
:100C50002091A8023091A9028217930719F061E050
:100C60000E94AC008091B7028823E1F14091B90263
:100C700060EB72E08AE00E94C10200E010E06AE0EE
:100C800070E080E090E00E9434018FEF0E94A202A9
:100C90008091AE0290E09595879587708630B0F58B
:100CA0008091BA02C0E0DCE1811107C0C091AF02BF
:100CB000DC2FCD3108F0DCE1CD1B0E947A0281E609
:100CC0000E9473028093AE0281EEE82E81E0F82E3E
:100CD000D15008F4D7C18FEF0E947302F7018193BE
:100CE0007F01F6CF82E00E94AF02FE01C49121E0B5
:100CF00030E001C0220FCA95EAF72095622F6823E1
:100D000082E00E94ED021092B702B7CF88E391E033
:100D10000E941C038091DF019091E0010E941E035C
:100D200085E491E00E941C0387E491E00E941C038B
:100D30008091E1019091E2010E941E0389E491E01B
:100D40000E941C038BE491E00E941C038091DD0152
:100D50009091DE010E941E038BE591E00E941C032E
:100D600087E491E00E941C038091E3019091E401EB
:100D70000E941E0389E491E00E941C038091DB0124
:100D80009091DC01019709F002C28DE591E00E948B
:100D90001C038CE191E00E941C0387E491E00E9417
:100DA0001C038091E5019091E6010E941E0389E4F5
:100DB00091E00E941C0385E691E00E941C03809153
:100DC000D9019091DA010E941E038BE691E00E9406
:100DD0001C0387E491E00E941C038091E70190913D
:100DE000E8010E941E0389E491E00E941C038DE645
:100DF00091E00E941C038091D7019091D8010E943C
:100E00001E0383E791E00E941C0387E491E00E94A7
:100E10001C038091E9019091EA010E941E0389E47C
:100E200091E00E941C038091D5019091D601019719
:100E300009F0B4C185E791E00E941C0384E191E0D0
:100E40000E941C0387E491E00E941C038091EB0147
:100E50009091EC010E941E0389E491E00E941C0322
:100E60008DE791E00E941C038091D3019091D40101
:100E70000E941E0387E491E00E941C038091ED0113
:100E80009091EE010E941E0389E491E00E941C03F0
:100E90008BE691E00E941C0383E891E00E941C0312
:100EA0008091D1019091D2010E941E0383E791E0CD
:100EB0000E941C0387E491E00E941C038091EF01D3
:100EC0009091F0010E941E0389E491E00E941C03AE
:100ED0008091CF019091D001019709F066C189E816
:100EE00091E00E941C038CE091E00E941C0387E4C7
:100EF00091E00E941C038091F1019091F2010E9407
:100F00001E0389E491E00E941C0381E991E00E94A4
:100F10001C038091CD019091CE010E941E038BE6AF
:100F200091E00E941C0387E491E00E941C038091E1
:100F3000F3019091F4010E941E0389E491E00E9464
:100F40001C0387E991E00E941C038091CB019091E2
:100F5000CC010E941E0383E791E00E941C0387E4FA
:100F600091E00E941C038091F5019091F6010E948E
:100F70001E0389E491E00E941C038091C9019091B5
:100F8000CA01019709F018C18DE991E00E941C0384
:100F900084E091E00E941C0387E491E00E941C031E
:100FA0008091F7019091F8010E941E0389E491E07D
:100FB0000E941C0385EA91E00E941C038091C701F6
:100FC0009091C8010E941E038BE691E00E941C03D1
:100FD00087E491E00E941C038091F9019091FA014D
:100FE0000E941E0389E491E00E941C038BEA91E0B9
:100FF0000E941C038091C5019091C6010E941E03AE
:1010000083E791E00E941C0387E491E00E941C03A7
:101010008091FB019091FC010E941E0389E491E004
:101020000E941C0381EB91E00E941C038091C3018C
:101030009091C4010E941E0385E491E00E941C036C
:1010400087E491E00E941C038091FD019091FE01D4
:101050000E941E0389E491E00E941C038DEB91E045
:101060000E940F038FEB91E00E940F030115110501
:1010700009F405CE0E94D001882309F400CE0E9415
:101080000000FDCDC15020F08FEF0E947302FACF17
:101090000E940C0160E487E00E94ED028091E10172
:1010A0009091E2019093E0018093DF018091E30150
:1010B0009091E4019093DE018093DD018091E50140
:1010C0009091E6019093DC018093DB018091E70130
:1010D0009091E8019093DA018093D9018091E90120
:1010E0009091EA019093D8018093D7018091EB0110
:1010F0009091EC019093D6018093D5018091ED0100
:101100009091EE019093D4018093D3018091EF01EF
:101110009091F0019093D2018093D1018091F101DF
:101120009091F2019093D0018093CF018091F301CF
:101130009091F4019093CE018093CD018091F501BF
:101140009091F6019093CC018093CB018091F701AF
:101150009091F8019093CA018093C9018091F9019F
:101160009091FA019093C8018093C7018091FB018F
:101170009091FC019093C6018093C5018091FD017F
:101180009091FE019093C4018093C3017ECD8DE5C3
:1011900091E00E941C0388E191E0FDCD85E791E09C
:1011A0000E941C0380E191E04BCE89E891E00E940F
:1011B0001C0388E091E099CE8DE991E00E941C0328
:1011C00080E091E0E7CEA1E21A2EAA1BBB1BFD0135
:1011D0000DC0AA1FBB1FEE1FFF1FA217B307E40716
:1011E000F50720F0A21BB30BE40BF50B661F771F6E
:1011F000881F991F1A9469F760957095809590954E
:101200009B01AC01BD01CF010895EE0FFF1F0590BA
:10121000F491E02D0994FB01DC0102C001900D92D4
:0C12200041505040D8F70895F894FFCFDB
:10122C004F4646004F4E20004F4646004F4E200082
:10123C004F4646004F4E20004F4646004F4E200072
:10124C003432000000000000000006026601930129
:10125C005302C401A201B6012048756D696469741A
:10126C0079203D3A0025005B005D002054656D70CF
:10127C0065726174757265203D3A00430020202030
:10128C004731533A00204731563A00560020473137
:10129C00413A0041002020204732533A0020473287
:1012AC00563A00204732413A002020205031533A20
:1012BC0000205031563A00205031413A0020202075
:1012CC005032533A00205032563A00205032413AB4
:1012DC0000202020505F6C696D2825290020000D0E
:0212EC000A00F6
:00000001FF
