:100000000C9463000C948B000C948B000C948B006C
:100010000C948B000C948B000C948B000C948B0034
:100020000C948B000C948B000C948B000C948B0024
:100030000C948B000C948B000C948B000C948B0014
:100040000C949D030C948B000C940D040C94E7030A
:100050000C948B000C948B000C948B000C948B00F4
:100060000C948B000C948B000A0B0C0D0E0F0001EE
:100070000203040500000008000201000003040759
:100080000000000000000000000000002500280023
:100090002B0000000000240027002A0004040404B0
:1000A0000404040402020202020203030303030322
:1000B00001020408102040800102040810200102FF
:1000C000040810203F0411241FBECFEFD8E0DEBF8C
:1000D000CDBF21E0A2E3B1E001C01D92AC3FB20769
:1000E000E1F711E0A0E0B1E0E4E7FFE002C0059035
:1000F0000D92A233B107D9F710E0C3E6D0E004C0F7
:100100002197FE010E94A407C236D107C9F70E94B9
:1001100093040C94B8070C94000090E0FC01E055A7
:10012000FF4F2491FC01E456FF4F8491882399F0FE
:1001300090E0880F991FFC01EE56FF4FA591B491F6
:10014000FC01E857FF4F859194918FB7F894EC919B
:10015000E22BEC938FBF089590E0FC01EC58FF4F29
:100160002491FC01E055FF4F3491FC01E456FF4F10
:10017000E491EE2309F43CC0222339F1233091F0BD
:1001800038F42130A9F0223001F584B58F7D12C0FA
:10019000273091F02830A1F02430B9F4809180000C
:1001A0008F7D03C0809180008F77809380000DC089
:1001B00084B58F7784BD09C08091B0008F7703C06C
:1001C0008091B0008F7D8093B000F0E0EE0FFF1FB4
:1001D000E857FF4FA591B4919FB7F894611104C0FF
:1001E0008C913095382302C0EC913E2B3C939FBFFD
:1001F0000895682F8091E0010E94AC008091F80181
:100200009091F9018230910538F0880F991F880F7D
:10021000991F05970197F1F7089581E00C94F90073
:100220003FB7F89480913A0190913B01A0913C0135
:10023000B0913D0126B5A89B05C02F3F19F001964E
:10024000A11DB11D3FBFBA2FA92F982F8827820F5C
:10025000911DA11DB11DBC01CD0142E0660F771FAC
:10026000881F991F4A95D1F708958F929F92AF9258
:10027000BF92CF92DF92EF92FF926B017C010E94BE
:1002800010014B015C01C114D104E104F104F1F04F
:100290000E941001DC01CB0188199909AA09BB0948
:1002A000883E9340A105B10570F321E0C21AD10840
:1002B000E108F10888EE880E83E0981EA11CB11CAD
:1002C000C114D104E104F10419F7DDCFFF90EF90E0
:1002D000DF90CF90BF90AF909F908F900895CF9276
:1002E000DF92EF92FF920F931F93CF93DF936C01F6
:1002F0007A018B01C0E0D0E0CE15DF0581F0D80196
:100300006D918D01D601ED91FC910190F081E02D70
:10031000C6010995892B11F02196EECF7E01C70108
:10032000DF91CF911F910F91FF90EF90DF90CF90D1
:100330000895089580E090E00895FC01538D448D68
:10034000252F30E0842F90E0821B930B541710F080
:10035000CF96089501970895FC01918D828D98178D
:1003600061F0828DDF01A80FB11D5D968C91928D99
:100370009F5F9F73928F90E008958FEF9FEF089596
:10038000FC01918D828D981731F0828DE80FF11D5F
:10039000858D90E008958FEF9FEF0895FC01918D7A
:1003A000228D892F90E0805C9F4F821B91098F7373
:1003B000992708958EE391E00E94CE0121E0892BD8
:1003C00009F420E0822F0895FC01848DDF01A80F3D
:1003D000B11DA35ABF4F2C91848D90E001968F736D
:1003E0009927848FA689B7892C93A089B1898C918C
:1003F000837080648C93938D848D981306C00288DB
:10040000F389E02D80818F7D80830895EF92FF92A4
:100410000F931F93CF93DF93EC0181E0888F9B8D27
:100420008C8D981305C0E889F989808185FD26C0E7
:10043000F62E0B8D10E00F5F1F4F0F731127E02E6C
:100440008C8DE8120CC00FB607FCFACFE889F98949
:10045000808185FFF5CFCE010E94E401F1CF8B8D25
:10046000FE01E80FF11DE35AFF4FF0829FB7F894A9
:100470000B8FEA89FB89808180620AC09FB7F8945C
:10048000EE89FF896083E889F989808183708064BF
:1004900080839FBF81E090E0DF91CF911F910F910A
:1004A000FF90EF900895CF93DF93EC01888D882320
:1004B000C9F0EA89FB89808185FD05C0A889B989D1
:1004C0008C9186FD0FC00FB607FCF5CF808185FFAC
:1004D000F2CFA889B9898C9185FFEDCFCE010E941A
:1004E000E401E7CFDF91CF91089580E090E0892B80
:1004F00029F00E94DA0181110C94000008958EBD4C
:1005000000000DB407FEFDCF8EB508950F931F9325
:100510000091E2011091E3012091E4013091E501A5
:1005200040E052E16AE770E090E004171507260703
:10053000370740F476956795579547959F5F9630B6
:10054000A1F797E081E08927982F906A96958170AE
:100550009CBD8DBD80E01F910F910C94F900CF934D
:10056000C82F0E9486028C2F0E947F028093E60192
:100570008FEF0E947F02C82F0E940D018C2FCF9118
:100580000895FF920F931F93CF93DF93182FF62EAA
:10059000D72FC42F0E948602812F80620E947F0283
:1005A0008093E6010F2D1D2FCC2339F0F8018191A6
:1005B0008F010E947F02C150F7CFDF91CF911F9131
:1005C0000F91FF900C940D010E94860280E50E941D
:1005D0007F028093E60183E70E947F020C940D0165
:1005E000CF93DF93D82FC62F0E9486028D2F806273
:1005F0000E947F028093E6018C2F0E947F02DF9190
:10060000CF910C940D016091ED0161FD0AC0626013
:100610006093ED0180E00E94F0028BE19EE401977F
:10062000F1F70895009769F0FC0101900020E9F7C7
:100630003197AF01481B590BBC018EE391E00C943C
:100640006F0180E090E008950C9412038F929F92C6
:10065000AF92BF92CF92DF92EF92FF920F931F93D0
:10066000CF93DF93CDB7DEB7A1970FB6F894DEBF77
:100670000FBECDBF6C01990FEE08FF08F7FE2BC02F
:100680006DE28EE391E00E9406028C01222733275F
:10069000A9012C193D094E095F0919A2CE018196C5
:1006A0007C019AE0892E912CA12CB12CCA01B901B0
:1006B000A50194010E948207605DF70162937F01AA
:1006C000211531054105510589F7CF010E9412031B
:1006D000800F911F1DC0A701960119A28E010F5D09
:1006E0001F4F8AE0C82ED12CE12CF12CCA01B90190
:1006F000A70196010E948207605DF80162938F0155
:10070000211531054105510589F7CF010E941203DA
:10071000A1960FB6F894DEBF0FBECDBFDF91CF918B
:100720001F910F91FF90EF90DF90CF90BF90AF900F
:100730009F908F9008950E94AA071F920F920FB664
:100740000F9211242F933F938F939F93AF93BF9357
:100750008091360190913701A0913801B091390113
:100760003091350123E0230F2D3720F40196A11D90
:10077000B11D05C026E8230F0296A11DB11D2093CF
:1007800035018093360190933701A0933801B093DF
:10079000390180913A0190913B01A0913C01B091C7
:1007A0003D010196A11DB11D80933A0190933B013B
:1007B000A0933C01B0933D01BF91AF919F918F9168
:1007C0003F912F910F900FBE0F901F9018951F9281
:1007D0000F920FB60F9211242F933F934F935F9375
:1007E0006F937F938F939F93AF93BF93EF93FF93F9
:1007F0008EE391E00E94E401FF91EF91BF91AF91F0
:100800009F918F917F916F915F914F913F912F9128
:100810000F900FBE0F901F9018951F920F920FB65A
:100820000F9211242F938F939F93EF93FF93E09157
:100830004E01F0914F018081E0915401F0915501FA
:1008400082FD12C09081809157018F5F8F7320913C
:100850005801821751F0E0915701F0E0E25CFE4F41
:10086000958F8093570101C08081FF91EF919F91F7
:100870008F912F910F900FBE0F901F901895EEE360
:10088000F1E01382128288EE93E0A0E0B0E084836E
:100890009583A683B7838AE091E09183808385EC7A
:1008A00090E09587848784EC90E09787868780EC3A
:1008B00090E0918B808B81EC90E0938B828B82EC2B
:1008C00090E0958B848B86EC90E0978B868B118ED5
:1008D000128E138E148EECEDF1E087E090E093839E
:1008E00082838AE090E09583848380E896E9A8E992
:1008F000B0E086839783A087B18780E28387128ADE
:10090000138A85E0858B81E0868B85E090E0A0E00E
:10091000B0E0848F958FA68FB78F8BED91E0918398
:10092000808314860895CF93DF93CDB7DEB76E979B
:100930000FB6F894DEBF0FBECDBF789484B5826049
:1009400084BD84B5816084BD85B5826085BD85B573
:10095000816085BD80916E00816080936E001092F1
:10096000810080918100826080938100809181006C
:1009700081608093810080918000816080938000FD
:100980008091B10084608093B1008091B00081605B
:100990008093B00080917A00846080937A00809187
:1009A0007A00826080937A0080917A0081608093DF
:1009B0007A0080917A00806880937A001092C1005A
:1009C000E0914E01F0914F0182E08083E0914A0175
:1009D000F0914B011082E0914C01F0914D0180E1CA
:1009E000808310925601E0915201F091530186E00C
:1009F0008083E0915001F09151018081806180837A
:100A0000E0915001F0915101808188608083E091F4
:100A10005001F0915101808180688083E091500104
:100A2000F091510180818F7D80831FB7F894809170
:100A30003201811124C0E6EAF0E08491EAEBF0E0B3
:100A40009491E82FF0E0EE0FFF1FEE56FF4FA591B7
:100A5000B491EC91E92321F461E08AE00E94AC00BA
:100A60008AE00E948D008CB580618CBD8CB580645D
:100A70008CBD8DE00E948D008BE00E948D008091E6
:100A800032018F5F809332011FBF8091DE01909110
:100A9000DF018F3F2FEF920709F494C02091E0010E
:100AA0003091E1012F3F4FEF340709F48BC08217DB
:100AB000930731F00E948D008091E0010E948D002B
:100AC0008091DE019091DF012091E0013091E10100
:100AD0008217930719F060E00E94AC0081E00E9449
:100AE000F90065E070E080E090E00E9435016FE57C
:100AF00084E00E94F00285E590E0A0E0B0E0809301
:100B0000F4019093F501A093F601B093F70167E02B
:100B100086E00E94F0028DE10E94AF02182F0E9431
:100B2000E4028DE10E94AF0291E0181390E09093EF
:100B3000EE018111DEC11092F00160E08CE10E94B3
:100B4000F0021092F2016FE381E00E94F00263E094
:100B500082E00E94F00280E28093E70111E160915F
:100B6000E701812F0E94F0021F5F1731C1F763E098
:100B700083E00E94F00285E08093F1016CE40E9422
:100B8000F00260E787E00E94F0020E94860282EE97
:100B90000E947F028093E6010E940D010E9486025E
:100BA00081EE0E947F028093E6010E940D016CE0BD
:100BB00080E00E94F00280E00E94AF028093ED018D
:100BC0000E9403034091F10150E060E071E088EE83
:100BD00091E00E94AF0781E08093EF01E8E6F0E04A
:100BE00084914091F10160E071E00E94C10282E0D5
:100BF0000E94AF020EE610E0F801949161E070E00F
:100C000001C0660F9A95EAF7682B82E00E94F00215
:100C100086E00E94AF02682F676086E00E94F002C3
:100C200086E00E94AF02877D4BE950E060E070E013
:100C30004093F4015093F5016093F6017093F7012E
:100C4000682F606286E00E94F00286E00E94AF0298
:100C50000E9403036091ED0161606093ED0180E00B
:100C60000E94F00260E787E00E94F0028091DE01BE
:100C70009091DF012091E0013091E101821793070B
:100C800019F061E00E94AC008091EF01882341F0EF
:100C90004091F10168EE71E08AE00E94C10213C048
:100CA00082E00E94AF02F801049121E030E001C02F
:100CB000220F0A95EAF72095622F682382E00E94AE
:100CC000F0021092EF016AE070E080E090E00E9494
:100CD00035018091F201811108C01091E701012FC7
:100CE0001F3108F00EE1101B02C010E00EE10E945F
:100CF000860281E60E947F028093E601CE01019682
:100D00007C01015038F08FEF0E947F02F701819340
:100D10007F01F7CF112329F08FEF0E947F0211503E
:100D2000F9CF0E940D0160E487E00E94F0020D8D72
:100D30001E8D109334010093330188E191E00E94ED
:100D4000240389819A810E9426038AE191E00E940E
:100D5000240388E191E00E9424038B819C810E94FE
:100D600026038AE191E00E94240388E191E00E9439
:100D700024038D819E810E9426038AE191E00E94D6
:100D8000240388E191E00E9424038F8198850E94CA
:100D900026038AE191E00E94240388E191E00E9409
:100DA000240389859A850E9426038AE191E00E94A6
:100DB000240388E191E00E9424038B859C850E9496
:100DC00026038AE191E00E94240388E191E00E94D9
:100DD00024038D859E850E9426038AE191E00E946E
:100DE00024038CE191E00E9424038EE191E00E94B3
:100DF000240388E191E00E9424038F8598890E9452
:100E000026038AE191E00E94240388E191E00E9498
:100E1000240389899A890E9426038AE191E00E942D
:100E2000240388E191E00E9424038B899C890E941D
:100E300026038AE191E00E94240388E191E00E9468
:100E400024038D899E890E9426038AE191E00E94F5
:100E5000240388E191E00E9424038F89988D0E94E9
:100E600026038AE191E00E9424038CE191E00E9434
:100E7000240388E191E00E942403898D9A8D0E94C9
:100E800026038AE191E00E9424038EE191E00E9412
:100E9000240388E191E00E9424038B8D9C8D0E94A5
:100EA00026038AE191E00E94240380E291E00E94FF
:100EB000240380913301909134010E9426038AE239
:100EC00091E00E94240388E191E00E942403C8017C
:100ED0000E9426038AE191E00E9424038CE291E0C3
:100EE0000E9412038EE291E00E9412030E9475029A
:100EF000EACE181302C00E94E40260E08DE10E9475
:100F0000F00219CEA1E21A2EAA1BBB1BFD010DC0D7
:100F1000AA1FBB1FEE1FFF1FA217B307E407F507A9
:100F200020F0A21BB30BE40BF50B661F771F881F85
:100F3000991F1A9469F760957095809590959B011B
:100F4000AC01BD01CF010895EE0FFF1F0590F49194
:100F5000E02D099481E090E0F8940C94B807FB012F
:100F6000DC0102C001900D9241505040D8F7089525
:040F7000F894FFCF23
:100F74003432000000000000000006026F019D01F1
:100F84005302CE01AC01C0015B005D00560041007C
:100F940020505F6C696D28252900250020000D0A6A
:020FA40000004B
:00000001FF
